{
  "contractName": "Marketplace",
  "abi": [
    {
      "inputs": [],
      "payable": false,
      "stateMutability": "nonpayable",
      "type": "constructor"
    },
    {
      "anonymous": false,
      "inputs": [
        {
          "indexed": false,
          "internalType": "uint256",
          "name": "id",
          "type": "uint256"
        },
        {
          "indexed": false,
          "internalType": "string",
          "name": "name",
          "type": "string"
        },
        {
          "indexed": false,
          "internalType": "uint256",
          "name": "phoneno",
          "type": "uint256"
        },
        {
          "indexed": false,
          "internalType": "bytes20",
          "name": "a",
          "type": "bytes20"
        },
        {
          "indexed": false,
          "internalType": "address payable",
          "name": "owner",
          "type": "address"
        }
      ],
      "name": "BuyerRegistered",
      "type": "event"
    },
    {
      "anonymous": false,
      "inputs": [
        {
          "indexed": false,
          "internalType": "uint256",
          "name": "id",
          "type": "uint256"
        },
        {
          "indexed": false,
          "internalType": "string",
          "name": "name",
          "type": "string"
        },
        {
          "indexed": false,
          "internalType": "uint256",
          "name": "phoneno",
          "type": "uint256"
        },
        {
          "indexed": false,
          "internalType": "bytes20",
          "name": "a",
          "type": "bytes20"
        },
        {
          "indexed": false,
          "internalType": "bytes20",
          "name": "s",
          "type": "bytes20"
        },
        {
          "indexed": false,
          "internalType": "bytes20",
          "name": "p",
          "type": "bytes20"
        },
        {
          "indexed": false,
          "internalType": "bytes20",
          "name": "t",
          "type": "bytes20"
        },
        {
          "indexed": false,
          "internalType": "string",
          "name": "city",
          "type": "string"
        },
        {
          "indexed": false,
          "internalType": "uint256",
          "name": "price",
          "type": "uint256"
        },
        {
          "indexed": false,
          "internalType": "address payable",
          "name": "owner",
          "type": "address"
        },
        {
          "indexed": false,
          "internalType": "bool",
          "name": "purchased",
          "type": "bool"
        },
        {
          "indexed": false,
          "internalType": "uint256",
          "name": "added",
          "type": "uint256"
        }
      ],
      "name": "ProductCreated",
      "type": "event"
    },
    {
      "anonymous": false,
      "inputs": [
        {
          "indexed": false,
          "internalType": "uint256",
          "name": "id",
          "type": "uint256"
        },
        {
          "indexed": false,
          "internalType": "string",
          "name": "name",
          "type": "string"
        },
        {
          "indexed": false,
          "internalType": "uint256",
          "name": "phoneno",
          "type": "uint256"
        },
        {
          "indexed": false,
          "internalType": "bytes20",
          "name": "adhaarno",
          "type": "bytes20"
        },
        {
          "indexed": false,
          "internalType": "bytes20",
          "name": "surveyno",
          "type": "bytes20"
        },
        {
          "indexed": false,
          "internalType": "bytes20",
          "name": "plotno",
          "type": "bytes20"
        },
        {
          "indexed": false,
          "internalType": "bytes20",
          "name": "street",
          "type": "bytes20"
        },
        {
          "indexed": false,
          "internalType": "string",
          "name": "city",
          "type": "string"
        },
        {
          "indexed": false,
          "internalType": "uint256",
          "name": "price",
          "type": "uint256"
        },
        {
          "indexed": false,
          "internalType": "address payable",
          "name": "owner",
          "type": "address"
        },
        {
          "indexed": false,
          "internalType": "bool",
          "name": "purchased",
          "type": "bool"
        }
      ],
      "name": "ProductPurchased",
      "type": "event"
    },
    {
      "anonymous": false,
      "inputs": [
        {
          "indexed": false,
          "internalType": "uint256",
          "name": "id",
          "type": "uint256"
        },
        {
          "indexed": false,
          "internalType": "string",
          "name": "name1",
          "type": "string"
        },
        {
          "indexed": false,
          "internalType": "uint256",
          "name": "phoneno1",
          "type": "uint256"
        },
        {
          "indexed": false,
          "internalType": "bytes20",
          "name": "adhaarno1",
          "type": "bytes20"
        },
        {
          "indexed": false,
          "internalType": "bytes20",
          "name": "surveyno1",
          "type": "bytes20"
        },
        {
          "indexed": false,
          "internalType": "bytes20",
          "name": "plotno1",
          "type": "bytes20"
        },
        {
          "indexed": false,
          "internalType": "bytes20",
          "name": "street1",
          "type": "bytes20"
        },
        {
          "indexed": false,
          "internalType": "string",
          "name": "city1",
          "type": "string"
        },
        {
          "indexed": false,
          "internalType": "address payable",
          "name": "owner",
          "type": "address"
        },
        {
          "indexed": false,
          "internalType": "bool",
          "name": "registered",
          "type": "bool"
        }
      ],
      "name": "PropertyRegistered",
      "type": "event"
    },
    {
      "constant": true,
      "inputs": [],
      "name": "added",
      "outputs": [
        {
          "internalType": "uint256",
          "name": "",
          "type": "uint256"
        }
      ],
      "payable": false,
      "stateMutability": "view",
      "type": "function"
    },
    {
      "constant": true,
      "inputs": [],
      "name": "buyerCount",
      "outputs": [
        {
          "internalType": "uint256",
          "name": "",
          "type": "uint256"
        }
      ],
      "payable": false,
      "stateMutability": "view",
      "type": "function"
    },
    {
      "constant": true,
      "inputs": [
        {
          "internalType": "uint256",
          "name": "",
          "type": "uint256"
        }
      ],
      "name": "buyers",
      "outputs": [
        {
          "internalType": "uint256",
          "name": "id",
          "type": "uint256"
        },
        {
          "internalType": "string",
          "name": "name2",
          "type": "string"
        },
        {
          "internalType": "uint256",
          "name": "phoneno2",
          "type": "uint256"
        },
        {
          "internalType": "bytes20",
          "name": "adhaarno2",
          "type": "bytes20"
        },
        {
          "internalType": "address payable",
          "name": "owner",
          "type": "address"
        }
      ],
      "payable": false,
      "stateMutability": "view",
      "type": "function"
    },
    {
      "constant": true,
      "inputs": [],
      "name": "name",
      "outputs": [
        {
          "internalType": "string",
          "name": "",
          "type": "string"
        }
      ],
      "payable": false,
      "stateMutability": "view",
      "type": "function"
    },
    {
      "constant": true,
      "inputs": [],
      "name": "productCount",
      "outputs": [
        {
          "internalType": "uint256",
          "name": "",
          "type": "uint256"
        }
      ],
      "payable": false,
      "stateMutability": "view",
      "type": "function"
    },
    {
      "constant": true,
      "inputs": [
        {
          "internalType": "uint256",
          "name": "",
          "type": "uint256"
        }
      ],
      "name": "products",
      "outputs": [
        {
          "internalType": "uint256",
          "name": "id",
          "type": "uint256"
        },
        {
          "internalType": "string",
          "name": "name",
          "type": "string"
        },
        {
          "internalType": "uint256",
          "name": "phoneno",
          "type": "uint256"
        },
        {
          "internalType": "bytes20",
          "name": "adhaarno",
          "type": "bytes20"
        },
        {
          "internalType": "bytes20",
          "name": "surveyno",
          "type": "bytes20"
        },
        {
          "internalType": "bytes20",
          "name": "plotno",
          "type": "bytes20"
        },
        {
          "internalType": "bytes20",
          "name": "street",
          "type": "bytes20"
        },
        {
          "internalType": "string",
          "name": "city",
          "type": "string"
        },
        {
          "internalType": "uint256",
          "name": "price",
          "type": "uint256"
        },
        {
          "internalType": "address payable",
          "name": "owner",
          "type": "address"
        },
        {
          "internalType": "bool",
          "name": "purchased",
          "type": "bool"
        },
        {
          "internalType": "uint256",
          "name": "added",
          "type": "uint256"
        }
      ],
      "payable": false,
      "stateMutability": "view",
      "type": "function"
    },
    {
      "constant": true,
      "inputs": [],
      "name": "r",
      "outputs": [
        {
          "internalType": "uint256",
          "name": "",
          "type": "uint256"
        }
      ],
      "payable": false,
      "stateMutability": "view",
      "type": "function"
    },
    {
      "constant": true,
      "inputs": [],
      "name": "registerCount",
      "outputs": [
        {
          "internalType": "uint256",
          "name": "",
          "type": "uint256"
        }
      ],
      "payable": false,
      "stateMutability": "view",
      "type": "function"
    },
    {
      "constant": true,
      "inputs": [
        {
          "internalType": "uint256",
          "name": "",
          "type": "uint256"
        }
      ],
      "name": "registers",
      "outputs": [
        {
          "internalType": "uint256",
          "name": "id",
          "type": "uint256"
        },
        {
          "internalType": "string",
          "name": "name1",
          "type": "string"
        },
        {
          "internalType": "uint256",
          "name": "phoneno1",
          "type": "uint256"
        },
        {
          "internalType": "bytes20",
          "name": "adhaarno1",
          "type": "bytes20"
        },
        {
          "internalType": "bytes20",
          "name": "surveyno1",
          "type": "bytes20"
        },
        {
          "internalType": "bytes20",
          "name": "plotno1",
          "type": "bytes20"
        },
        {
          "internalType": "bytes20",
          "name": "street1",
          "type": "bytes20"
        },
        {
          "internalType": "string",
          "name": "city1",
          "type": "string"
        },
        {
          "internalType": "address payable",
          "name": "owner",
          "type": "address"
        },
        {
          "internalType": "bool",
          "name": "registered",
          "type": "bool"
        }
      ],
      "payable": false,
      "stateMutability": "view",
      "type": "function"
    },
    {
      "constant": false,
      "inputs": [
        {
          "internalType": "string",
          "name": "_name1",
          "type": "string"
        },
        {
          "internalType": "uint256",
          "name": "_phoneno1",
          "type": "uint256"
        },
        {
          "internalType": "uint256",
          "name": "_adhaarno1",
          "type": "uint256"
        },
        {
          "internalType": "uint256",
          "name": "_surveyno1",
          "type": "uint256"
        },
        {
          "internalType": "uint256",
          "name": "_plotno1",
          "type": "uint256"
        },
        {
          "internalType": "string",
          "name": "_street1",
          "type": "string"
        },
        {
          "internalType": "string",
          "name": "_city1",
          "type": "string"
        }
      ],
      "name": "propertyRegistry",
      "outputs": [],
      "payable": false,
      "stateMutability": "nonpayable",
      "type": "function"
    },
    {
      "constant": false,
      "inputs": [
        {
          "internalType": "string",
          "name": "_name",
          "type": "string"
        },
        {
          "internalType": "uint256",
          "name": "_phoneno",
          "type": "uint256"
        },
        {
          "internalType": "uint256",
          "name": "_adhaarno",
          "type": "uint256"
        },
        {
          "internalType": "uint256",
          "name": "_surveyno",
          "type": "uint256"
        },
        {
          "internalType": "uint256",
          "name": "_plotno",
          "type": "uint256"
        },
        {
          "internalType": "string",
          "name": "_street",
          "type": "string"
        },
        {
          "internalType": "string",
          "name": "_city",
          "type": "string"
        },
        {
          "internalType": "uint256",
          "name": "_price",
          "type": "uint256"
        }
      ],
      "name": "createProduct",
      "outputs": [],
      "payable": false,
      "stateMutability": "nonpayable",
      "type": "function"
    },
    {
      "constant": false,
      "inputs": [
        {
          "internalType": "string",
          "name": "_name2",
          "type": "string"
        },
        {
          "internalType": "uint256",
          "name": "_phoneno2",
          "type": "uint256"
        },
        {
          "internalType": "uint256",
          "name": "_adhaarno2",
          "type": "uint256"
        }
      ],
      "name": "buyerProduct",
      "outputs": [],
      "payable": false,
      "stateMutability": "nonpayable",
      "type": "function"
    },
    {
      "constant": false,
      "inputs": [
        {
          "internalType": "uint256",
          "name": "_id",
          "type": "uint256"
        }
      ],
      "name": "purchaseProduct",
      "outputs": [],
      "payable": true,
      "stateMutability": "payable",
      "type": "function"
    }
  ],
  "bytecode": "0x608060405260006001556000600255600060035560006005553480156200002557600080fd5b506040518060400160405280601a81526020017f4368656e6e6169205265616c20457374617465204d61726b657400000000000081525060009080519060200190620000739291906200007a565b5062000129565b828054600181600116156101000203166002900490600052602060002090601f016020900481019282601f10620000bd57805160ff1916838001178555620000ee565b82800160010185558215620000ee579182015b82811115620000ed578251825591602001919060010190620000d0565b5b509050620000fd919062000101565b5090565b6200012691905b808211156200012257600081600090555060010162000108565b5090565b90565b61412f80620001396000396000f3fe6080604052600436106100c25760003560e01c80639e0cea051161007f578063c875420611610059578063c875420614610919578063e0f6ef8714610944578063ee3de2701461096f578063f2aa821814610b8d576100c2565b80639e0cea051461069a578063ada78115146106c5578063b888c408146106f0576100c2565b806306fdde03146100c75780631d1d1af41461015757806338e76a03146103575780633df52cdf146103855780636c8ae38c146104615780637acc0b201461048c575b600080fd5b3480156100d357600080fd5b506100dc610ca7565b6040518080602001828103825283818151815260200191508051906020019080838360005b8381101561011c578082015181840152602081019050610101565b50505050905090810190601f1680156101495780820380516001836020036101000a031916815260200191505b509250505060405180910390f35b34801561016357600080fd5b506101906004803603602081101561017a57600080fd5b8101908080359060200190929190505050610d45565b604051808b8152602001806020018a8152602001896bffffffffffffffffffffffff19166bffffffffffffffffffffffff19168152602001886bffffffffffffffffffffffff19166bffffffffffffffffffffffff19168152602001876bffffffffffffffffffffffff19166bffffffffffffffffffffffff19168152602001866bffffffffffffffffffffffff19166bffffffffffffffffffffffff19168152602001806020018573ffffffffffffffffffffffffffffffffffffffff1673ffffffffffffffffffffffffffffffffffffffff1681526020018415151515815260200183810383528c818151815260200191508051906020019080838360005b838110156102ac578082015181840152602081019050610291565b50505050905090810190601f1680156102d95780820380516001836020036101000a031916815260200191505b50838103825286818151815260200191508051906020019080838360005b838110156103125780820151818401526020810190506102f7565b50505050905090810190601f16801561033f5780820380516001836020036101000a031916815260200191505b509c5050505050505050505050505060405180910390f35b6103836004803603602081101561036d57600080fd5b8101908080359060200190929190505050610f2a565b005b34801561039157600080fd5b5061045f600480360360608110156103a857600080fd5b81019080803590602001906401000000008111156103c557600080fd5b8201836020820111156103d757600080fd5b803590602001918460018302840111640100000000831117156103f957600080fd5b91908080601f016020809104026020016040519081016040528093929190818152602001838380828437600081840152601f19601f820116905080830192505050505050509192919290803590602001909291908035906020019092919050505061202a565b005b34801561046d57600080fd5b506104766123cb565b6040518082815260200191505060405180910390f35b34801561049857600080fd5b506104c5600480360360208110156104af57600080fd5b81019080803590602001909291905050506123d1565b604051808d8152602001806020018c81526020018b6bffffffffffffffffffffffff19166bffffffffffffffffffffffff191681526020018a6bffffffffffffffffffffffff19166bffffffffffffffffffffffff19168152602001896bffffffffffffffffffffffff19166bffffffffffffffffffffffff19168152602001886bffffffffffffffffffffffff19166bffffffffffffffffffffffff19168152602001806020018781526020018673ffffffffffffffffffffffffffffffffffffffff1673ffffffffffffffffffffffffffffffffffffffff1681526020018515151515815260200184815260200183810383528e818151815260200191508051906020019080838360005b838110156105ed5780820151818401526020810190506105d2565b50505050905090810190601f16801561061a5780820380516001836020036101000a031916815260200191505b50838103825288818151815260200191508051906020019080838360005b83811015610653578082015181840152602081019050610638565b50505050905090810190601f1680156106805780820380516001836020036101000a031916815260200191505b509e50505050505050505050505050505060405180910390f35b3480156106a657600080fd5b506106af6125c2565b6040518082815260200191505060405180910390f35b3480156106d157600080fd5b506106da6125c8565b6040518082815260200191505060405180910390f35b3480156106fc57600080fd5b50610917600480360361010081101561071457600080fd5b810190808035906020019064010000000081111561073157600080fd5b82018360208201111561074357600080fd5b8035906020019184600183028401116401000000008311171561076557600080fd5b91908080601f016020809104026020016040519081016040528093929190818152602001838380828437600081840152601f19601f82011690508083019250505050505050919291929080359060200190929190803590602001909291908035906020019092919080359060200190929190803590602001906401000000008111156107f057600080fd5b82018360208201111561080257600080fd5b8035906020019184600183028401116401000000008311171561082457600080fd5b91908080601f016020809104026020016040519081016040528093929190818152602001838380828437600081840152601f19601f8201169050808301925050505050505091929192908035906020019064010000000081111561088757600080fd5b82018360208201111561089957600080fd5b803590602001918460018302840111640100000000831117156108bb57600080fd5b91908080601f016020809104026020016040519081016040528093929190818152602001838380828437600081840152601f19601f820116905080830192505050505050509192919290803590602001909291905050506125ce565b005b34801561092557600080fd5b5061092e6133e8565b6040518082815260200191505060405180910390f35b34801561095057600080fd5b506109596133ee565b6040518082815260200191505060405180910390f35b34801561097b57600080fd5b50610b8b600480360360e081101561099257600080fd5b81019080803590602001906401000000008111156109af57600080fd5b8201836020820111156109c157600080fd5b803590602001918460018302840111640100000000831117156109e357600080fd5b91908080601f016020809104026020016040519081016040528093929190818152602001838380828437600081840152601f19601f8201169050808301925050505050505091929192908035906020019092919080359060200190929190803590602001909291908035906020019092919080359060200190640100000000811115610a6e57600080fd5b820183602082011115610a8057600080fd5b80359060200191846001830284011164010000000083111715610aa257600080fd5b91908080601f016020809104026020016040519081016040528093929190818152602001838380828437600081840152601f19601f82011690508083019250505050505050919291929080359060200190640100000000811115610b0557600080fd5b820183602082011115610b1757600080fd5b80359060200191846001830284011164010000000083111715610b3957600080fd5b91908080601f016020809104026020016040519081016040528093929190818152602001838380828437600081840152601f19601f8201169050808301925050505050505091929192905050506133f4565b005b348015610b9957600080fd5b50610bc660048036036020811015610bb057600080fd5b8101908080359060200190929190505050613e1e565b6040518086815260200180602001858152602001846bffffffffffffffffffffffff19166bffffffffffffffffffffffff191681526020018373ffffffffffffffffffffffffffffffffffffffff1673ffffffffffffffffffffffffffffffffffffffff168152602001828103825286818151815260200191508051906020019080838360005b83811015610c68578082015181840152602081019050610c4d565b50505050905090810190601f168015610c955780820380516001836020036101000a031916815260200191505b50965050505050505060405180910390f35b60008054600181600116156101000203166002900480601f016020809104026020016040519081016040528092919081815260200182805460018160011615610100020316600290048015610d3d5780601f10610d1257610100808354040283529160200191610d3d565b820191906000526020600020905b815481529060010190602001808311610d2057829003601f168201915b505050505081565b6006602052806000526040600020600091509050806000015490806001018054600181600116156101000203166002900480601f016020809104026020016040519081016040528092919081815260200182805460018160011615610100020316600290048015610df75780601f10610dcc57610100808354040283529160200191610df7565b820191906000526020600020905b815481529060010190602001808311610dda57829003601f168201915b5050505050908060020154908060030160009054906101000a900460601b908060040160009054906101000a900460601b908060050160009054906101000a900460601b908060060160009054906101000a900460601b90806007018054600181600116156101000203166002900480601f016020809104026020016040519081016040528092919081815260200182805460018160011615610100020316600290048015610ee75780601f10610ebc57610100808354040283529160200191610ee7565b820191906000526020600020905b815481529060010190602001808311610eca57829003601f168201915b5050505050908060080160009054906101000a900473ffffffffffffffffffffffffffffffffffffffff16908060080160149054906101000a900460ff1690508a565b610f32613f19565b600760008381526020019081526020016000206040518061018001604052908160008201548152602001600182018054600181600116156101000203166002900480601f016020809104026020016040519081016040528092919081815260200182805460018160011615610100020316600290048015610ff45780601f10610fc957610100808354040283529160200191610ff4565b820191906000526020600020905b815481529060010190602001808311610fd757829003601f168201915b50505050508152602001600282015481526020016003820160009054906101000a900460601b6bffffffffffffffffffffffff19166bffffffffffffffffffffffff191681526020016004820160009054906101000a900460601b6bffffffffffffffffffffffff19166bffffffffffffffffffffffff191681526020016005820160009054906101000a900460601b6bffffffffffffffffffffffff19166bffffffffffffffffffffffff191681526020016006820160009054906101000a900460601b6bffffffffffffffffffffffff19166bffffffffffffffffffffffff19168152602001600782018054600181600116156101000203166002900480601f0160208091040260200160405190810160405280929190818152602001828054600181600116156101000203166002900480156111745780601f1061114957610100808354040283529160200191611174565b820191906000526020600020905b81548152906001019060200180831161115757829003601f168201915b50505050508152602001600882015481526020016009820160009054906101000a900473ffffffffffffffffffffffffffffffffffffffff1673ffffffffffffffffffffffffffffffffffffffff1673ffffffffffffffffffffffffffffffffffffffff1681526020016009820160149054906101000a900460ff16151515158152602001600a82015481525050905060008161012001519050600082600001511180156112285750600154826000015111155b61123157600080fd5b81610100015134101561124357600080fd5b8161014001511561125357600080fd5b3373ffffffffffffffffffffffffffffffffffffffff168173ffffffffffffffffffffffffffffffffffffffff16141561128c57600080fd5b3382610120019073ffffffffffffffffffffffffffffffffffffffff16908173ffffffffffffffffffffffffffffffffffffffff16815250506001826101400190151590811515815250508160076000858152602001908152602001600020600082015181600001556020820151816001019080519060200190611311929190613fce565b506040820151816002015560608201518160030160006101000a81548173ffffffffffffffffffffffffffffffffffffffff021916908360601c021790555060808201518160040160006101000a81548173ffffffffffffffffffffffffffffffffffffffff021916908360601c021790555060a08201518160050160006101000a81548173ffffffffffffffffffffffffffffffffffffffff021916908360601c021790555060c08201518160060160006101000a81548173ffffffffffffffffffffffffffffffffffffffff021916908360601c021790555060e0820151816007019080519060200190611408929190613fce565b5061010082015181600801556101208201518160090160006101000a81548173ffffffffffffffffffffffffffffffffffffffff021916908373ffffffffffffffffffffffffffffffffffffffff1602179055506101408201518160090160146101000a81548160ff02191690831515021790555061016082015181600a01559050508073ffffffffffffffffffffffffffffffffffffffff166108fc349081150290604051600060405180830381858888f193505050501580156114d1573d6000803e3d6000fd5b506000600190505b60035481116116415782610120015173ffffffffffffffffffffffffffffffffffffffff166008600083815260200190815260200160002060040160009054906101000a900473ffffffffffffffffffffffffffffffffffffffff1673ffffffffffffffffffffffffffffffffffffffff161415611634576008600082815260200190815260200160002060010160076000868152602001908152602001600020600101908054600181600116156101000203166002900461159c92919061404e565b50600860008281526020019081526020016000206002015460076000868152602001908152602001600020600201819055506008600082815260200190815260200160002060030160009054906101000a900460601b6007600086815260200190815260200160002060030160006101000a81548173ffffffffffffffffffffffffffffffffffffffff021916908360601c02179055505b80806001019150506114d9565b507f808fb6169611b04ed8f3d52072d98b4ae6d5d556a728d51ab989245a76605b406001548360200151846040015160036002876060015160405160200180826bffffffffffffffffffffffff19166bffffffffffffffffffffffff191681526014019150506040516020818303038152906040526040518082805190602001908083835b602083106116e957805182526020820191506020810190506020830392506116c6565b6001836020036101000a038019825116818451168082178552505050505050905001915050602060405180830381855afa15801561172b573d6000803e3d6000fd5b5050506040513d602081101561174057600080fd5b8101908080519060200190929190505050604051602001808281526020019150506040516020818303038152906040526040518082805190602001908083835b602083106117a35780518252602082019150602081019050602083039250611780565b6001836020036101000a038019825116818451168082178552505050505050905001915050602060405180830381855afa1580156117e5573d6000803e3d6000fd5b5050506040515160601b60036002886080015160405160200180826bffffffffffffffffffffffff19166bffffffffffffffffffffffff191681526014019150506040516020818303038152906040526040518082805190602001908083835b602083106118685780518252602082019150602081019050602083039250611845565b6001836020036101000a038019825116818451168082178552505050505050905001915050602060405180830381855afa1580156118aa573d6000803e3d6000fd5b5050506040513d60208110156118bf57600080fd5b8101908080519060200190929190505050604051602001808281526020019150506040516020818303038152906040526040518082805190602001908083835b6020831061192257805182526020820191506020810190506020830392506118ff565b6001836020036101000a038019825116818451168082178552505050505050905001915050602060405180830381855afa158015611964573d6000803e3d6000fd5b5050506040515160601b600360028960a0015160405160200180826bffffffffffffffffffffffff19166bffffffffffffffffffffffff191681526014019150506040516020818303038152906040526040518082805190602001908083835b602083106119e757805182526020820191506020810190506020830392506119c4565b6001836020036101000a038019825116818451168082178552505050505050905001915050602060405180830381855afa158015611a29573d6000803e3d6000fd5b5050506040513d6020811015611a3e57600080fd5b8101908080519060200190929190505050604051602001808281526020019150506040516020818303038152906040526040518082805190602001908083835b60208310611aa15780518252602082019150602081019050602083039250611a7e565b6001836020036101000a038019825116818451168082178552505050505050905001915050602060405180830381855afa158015611ae3573d6000803e3d6000fd5b5050506040515160601b600360028a60c0015160405160200180826bffffffffffffffffffffffff19166bffffffffffffffffffffffff191681526014019150506040516020818303038152906040526040518082805190602001908083835b60208310611b665780518252602082019150602081019050602083039250611b43565b6001836020036101000a038019825116818451168082178552505050505050905001915050602060405180830381855afa158015611ba8573d6000803e3d6000fd5b5050506040513d6020811015611bbd57600080fd5b8101908080519060200190929190505050604051602001808281526020019150506040516020818303038152906040526040518082805190602001908083835b60208310611c205780518252602082019150602081019050602083039250611bfd565b6001836020036101000a038019825116818451168082178552505050505050905001915050602060405180830381855afa158015611c62573d6000803e3d6000fd5b5050506040515160601b8960e001518a6101000151336001604051808c8152602001806020018b81526020018a6bffffffffffffffffffffffff19166bffffffffffffffffffffffff19168152602001896bffffffffffffffffffffffff19166bffffffffffffffffffffffff19168152602001886bffffffffffffffffffffffff19166bffffffffffffffffffffffff19168152602001876bffffffffffffffffffffffff19166bffffffffffffffffffffffff19168152602001806020018681526020018573ffffffffffffffffffffffffffffffffffffffff1673ffffffffffffffffffffffffffffffffffffffff1681526020018415151515815260200183810383528d818151815260200191508051906020019080838360005b83811015611d9c578082015181840152602081019050611d81565b50505050905090810190601f168015611dc95780820380516001836020036101000a031916815260200191505b50838103825287818151815260200191508051906020019080838360005b83811015611e02578082015181840152602081019050611de7565b50505050905090810190601f168015611e2f5780820380516001836020036101000a031916815260200191505b509d505050505050505050505050505060405180910390a16000600190505b6002548111612024576007600085815260200190815260200160002060040160009054906101000a900460601b6bffffffffffffffffffffffff19166006600083815260200190815260200160002060040160009054906101000a900460601b6bffffffffffffffffffffffff191614156120175760076000858152602001908152602001600020600101600660008381526020019081526020016000206001019080546001816001161561010002031660029004611f0e92919061404e565b50600760008581526020019081526020016000206002015460066000838152602001908152602001600020600201819055506007600085815260200190815260200160002060030160009054906101000a900460601b6006600083815260200190815260200160002060030160006101000a81548173ffffffffffffffffffffffffffffffffffffffff021916908360601c0217905550336006600083815260200190815260200160002060080160006101000a81548173ffffffffffffffffffffffffffffffffffffffff021916908373ffffffffffffffffffffffffffffffffffffffff160217905550600060076000838152602001908152602001600020600a01819055505b8080600101915050611e4e565b50505050565b600083511161203857600080fd5b60006003600283604051602001808281526020019150506040516020818303038152906040526040518082805190602001908083835b60208310612091578051825260208201915060208101905060208303925061206e565b6001836020036101000a038019825116818451168082178552505050505050905001915050602060405180830381855afa1580156120d3573d6000803e3d6000fd5b5050506040513d60208110156120e857600080fd5b8101908080519060200190929190505050604051602001808281526020019150506040516020818303038152906040526040518082805190602001908083835b6020831061214b5780518252602082019150602081019050602083039250612128565b6001836020036101000a038019825116818451168082178552505050505050905001915050602060405180830381855afa15801561218d573d6000803e3d6000fd5b5050506040515160601b90506003600081548092919060010191905055506040518060a001604052806003548152602001858152602001848152602001826bffffffffffffffffffffffff191681526020013373ffffffffffffffffffffffffffffffffffffffff16815250600860006003548152602001908152602001600020600082015181600001556020820151816001019080519060200190612234929190613fce565b506040820151816002015560608201518160030160006101000a81548173ffffffffffffffffffffffffffffffffffffffff021916908360601c021790555060808201518160040160006101000a81548173ffffffffffffffffffffffffffffffffffffffff021916908373ffffffffffffffffffffffffffffffffffffffff1602179055509050507f6c35741bbe85b9259f80847afff4d79e908b0344c85fcf1cb9600dfb0976e196600354858584336040518086815260200180602001858152602001846bffffffffffffffffffffffff19166bffffffffffffffffffffffff191681526020018373ffffffffffffffffffffffffffffffffffffffff1673ffffffffffffffffffffffffffffffffffffffff168152602001828103825286818151815260200191508051906020019080838360005b8381101561238757808201518184015260208101905061236c565b50505050905090810190601f1680156123b45780820380516001836020036101000a031916815260200191505b50965050505050505060405180910390a150505050565b60055481565b6007602052806000526040600020600091509050806000015490806001018054600181600116156101000203166002900480601f0160208091040260200160405190810160405280929190818152602001828054600181600116156101000203166002900480156124835780601f1061245857610100808354040283529160200191612483565b820191906000526020600020905b81548152906001019060200180831161246657829003601f168201915b5050505050908060020154908060030160009054906101000a900460601b908060040160009054906101000a900460601b908060050160009054906101000a900460601b908060060160009054906101000a900460601b90806007018054600181600116156101000203166002900480601f0160208091040260200160405190810160405280929190818152602001828054600181600116156101000203166002900480156125735780601f1061254857610100808354040283529160200191612573565b820191906000526020600020905b81548152906001019060200180831161255657829003601f168201915b5050505050908060080154908060090160009054906101000a900473ffffffffffffffffffffffffffffffffffffffff16908060090160149054906101000a900460ff169080600a015490508c565b60035481565b60025481565b60008851116125dc57600080fd5b600060048190555060006004600081548092919060010191905055506000809050600080600080600360028d604051602001808281526020019150506040516020818303038152906040526040518082805190602001908083835b6020831061265a5780518252602082019150602081019050602083039250612637565b6001836020036101000a038019825116818451168082178552505050505050905001915050602060405180830381855afa15801561269c573d6000803e3d6000fd5b5050506040513d60208110156126b157600080fd5b8101908080519060200190929190505050604051602001808281526020019150506040516020818303038152906040526040518082805190602001908083835b6020831061271457805182526020820191506020810190506020830392506126f1565b6001836020036101000a038019825116818451168082178552505050505050905001915050602060405180830381855afa158015612756573d6000803e3d6000fd5b5050506040515160601b9350600360028c604051602001808281526020019150506040516020818303038152906040526040518082805190602001908083835b602083106127b95780518252602082019150602081019050602083039250612796565b6001836020036101000a038019825116818451168082178552505050505050905001915050602060405180830381855afa1580156127fb573d6000803e3d6000fd5b5050506040513d602081101561281057600080fd5b8101908080519060200190929190505050604051602001808281526020019150506040516020818303038152906040526040518082805190602001908083835b602083106128735780518252602082019150602081019050602083039250612850565b6001836020036101000a038019825116818451168082178552505050505050905001915050602060405180830381855afa1580156128b5573d6000803e3d6000fd5b5050506040515160601b9250600360028b604051602001808281526020019150506040516020818303038152906040526040518082805190602001908083835b6020831061291857805182526020820191506020810190506020830392506128f5565b6001836020036101000a038019825116818451168082178552505050505050905001915050602060405180830381855afa15801561295a573d6000803e3d6000fd5b5050506040513d602081101561296f57600080fd5b8101908080519060200190929190505050604051602001808281526020019150506040516020818303038152906040526040518082805190602001908083835b602083106129d257805182526020820191506020810190506020830392506129af565b6001836020036101000a038019825116818451168082178552505050505050905001915050602060405180830381855afa158015612a14573d6000803e3d6000fd5b5050506040515160601b9150600360028a6040516020018082805190602001908083835b60208310612a5b5780518252602082019150602081019050602083039250612a38565b6001836020036101000a0380198251168184511680821785525050505050509050019150506040516020818303038152906040526040518082805190602001908083835b60208310612ac25780518252602082019150602081019050602083039250612a9f565b6001836020036101000a038019825116818451168082178552505050505050905001915050602060405180830381855afa158015612b04573d6000803e3d6000fd5b5050506040513d6020811015612b1957600080fd5b8101908080519060200190929190505050604051602001808281526020019150506040516020818303038152906040526040518082805190602001908083835b60208310612b7c5780518252602082019150602081019050602083039250612b59565b6001836020036101000a038019825116818451168082178552505050505050905001915050602060405180830381855afa158015612bbe573d6000803e3d6000fd5b5050506040515160601b90506000600190505b6002548111612d3957836bffffffffffffffffffffffff19166006600083815260200190815260200160002060040160009054906101000a900460601b6bffffffffffffffffffffffff1916148015612c3f57508d6006600083815260200190815260200160002060020154145b8015612c8b5750846bffffffffffffffffffffffff19166006600083815260200190815260200160002060030160009054906101000a900460601b6bffffffffffffffffffffffff1916145b8015612cd75750826bffffffffffffffffffffffff19166006600083815260200190815260200160002060050160009054906101000a900460601b6bffffffffffffffffffffffff1916145b8015612d235750816bffffffffffffffffffffffff19166006600083815260200190815260200160002060060160009054906101000a900460601b6bffffffffffffffffffffffff1916145b15612d2c578096505b8080600101915050612bd1565b506006600087815260200190815260200160002060080160149054906101000a900460ff16612dd0576040517f08c379a000000000000000000000000000000000000000000000000000000000815260040180806020018281038252600e8152602001807f6e6f74207265676973746572656400000000000000000000000000000000000081525060200191505060405180910390fd5b3373ffffffffffffffffffffffffffffffffffffffff166006600088815260200190815260200160002060080160009054906101000a900473ffffffffffffffffffffffffffffffffffffffff1673ffffffffffffffffffffffffffffffffffffffff1614612e3e57600080fd5b6000600554118015612e505750600085145b15612f4e576000600190505b6001548111612f4c57836bffffffffffffffffffffffff19166007600083815260200190815260200160002060040160009054906101000a900460601b6bffffffffffffffffffffffff1916148015612f1657503373ffffffffffffffffffffffffffffffffffffffff166007600083815260200190815260200160002060090160009054906101000a900473ffffffffffffffffffffffffffffffffffffffff1673ffffffffffffffffffffffffffffffffffffffff16145b15612f3f57600160076000838152602001908152602001600020600a015410612f3e57600080fd5b5b8080600101915050612e5c565b505b60016000815480929190600101919050555060405180610180016040528060015481526020018f81526020018e8152602001856bffffffffffffffffffffffff19168152602001846bffffffffffffffffffffffff19168152602001836bffffffffffffffffffffffff19168152602001826bffffffffffffffffffffffff191681526020018981526020018881526020013373ffffffffffffffffffffffffffffffffffffffff168152602001600015158152602001600454815250600760006001548152602001908152602001600020600082015181600001556020820151816001019080519060200190613046929190613fce565b506040820151816002015560608201518160030160006101000a81548173ffffffffffffffffffffffffffffffffffffffff021916908360601c021790555060808201518160040160006101000a81548173ffffffffffffffffffffffffffffffffffffffff021916908360601c021790555060a08201518160050160006101000a81548173ffffffffffffffffffffffffffffffffffffffff021916908360601c021790555060c08201518160060160006101000a81548173ffffffffffffffffffffffffffffffffffffffff021916908360601c021790555060e082015181600701908051906020019061313d929190613fce565b5061010082015181600801556101208201518160090160006101000a81548173ffffffffffffffffffffffffffffffffffffffff021916908373ffffffffffffffffffffffffffffffffffffffff1602179055506101408201518160090160146101000a81548160ff02191690831515021790555061016082015181600a01559050507fad159c64211b3b3083632f7796a2a279bef996a7607c456327a23991da8267066001548f8f878787878f8f336000600454604051808d8152602001806020018c81526020018b6bffffffffffffffffffffffff19166bffffffffffffffffffffffff191681526020018a6bffffffffffffffffffffffff19166bffffffffffffffffffffffff19168152602001896bffffffffffffffffffffffff19166bffffffffffffffffffffffff19168152602001886bffffffffffffffffffffffff19166bffffffffffffffffffffffff19168152602001806020018781526020018673ffffffffffffffffffffffffffffffffffffffff1673ffffffffffffffffffffffffffffffffffffffff1681526020018515151515815260200184815260200183810383528e818151815260200191508051906020019080838360005b8381101561331a5780820151818401526020810190506132ff565b50505050905090810190601f1680156133475780820380516001836020036101000a031916815260200191505b50838103825288818151815260200191508051906020019080838360005b83811015613380578082015181840152602081019050613365565b50505050905090810190601f1680156133ad5780820380516001836020036101000a031916815260200191505b509e50505050505050505050505050505060405180910390a16005600081548092919060010191905055505050505050505050505050505050565b60045481565b60015481565b600087511161340257600080fd5b600080600080600260008154809291906001019190505550600360028a604051602001808281526020019150506040516020818303038152906040526040518082805190602001908083835b60208310613471578051825260208201915060208101905060208303925061344e565b6001836020036101000a038019825116818451168082178552505050505050905001915050602060405180830381855afa1580156134b3573d6000803e3d6000fd5b5050506040513d60208110156134c857600080fd5b8101908080519060200190929190505050604051602001808281526020019150506040516020818303038152906040526040518082805190602001908083835b6020831061352b5780518252602082019150602081019050602083039250613508565b6001836020036101000a038019825116818451168082178552505050505050905001915050602060405180830381855afa15801561356d573d6000803e3d6000fd5b5050506040515160601b93506003600289604051602001808281526020019150506040516020818303038152906040526040518082805190602001908083835b602083106135d057805182526020820191506020810190506020830392506135ad565b6001836020036101000a038019825116818451168082178552505050505050905001915050602060405180830381855afa158015613612573d6000803e3d6000fd5b5050506040513d602081101561362757600080fd5b8101908080519060200190929190505050604051602001808281526020019150506040516020818303038152906040526040518082805190602001908083835b6020831061368a5780518252602082019150602081019050602083039250613667565b6001836020036101000a038019825116818451168082178552505050505050905001915050602060405180830381855afa1580156136cc573d6000803e3d6000fd5b5050506040515160601b92506003600288604051602001808281526020019150506040516020818303038152906040526040518082805190602001908083835b6020831061372f578051825260208201915060208101905060208303925061370c565b6001836020036101000a038019825116818451168082178552505050505050905001915050602060405180830381855afa158015613771573d6000803e3d6000fd5b5050506040513d602081101561378657600080fd5b8101908080519060200190929190505050604051602001808281526020019150506040516020818303038152906040526040518082805190602001908083835b602083106137e957805182526020820191506020810190506020830392506137c6565b6001836020036101000a038019825116818451168082178552505050505050905001915050602060405180830381855afa15801561382b573d6000803e3d6000fd5b5050506040515160601b915060036002876040516020018082805190602001908083835b60208310613872578051825260208201915060208101905060208303925061384f565b6001836020036101000a0380198251168184511680821785525050505050509050019150506040516020818303038152906040526040518082805190602001908083835b602083106138d957805182526020820191506020810190506020830392506138b6565b6001836020036101000a038019825116818451168082178552505050505050905001915050602060405180830381855afa15801561391b573d6000803e3d6000fd5b5050506040513d602081101561393057600080fd5b8101908080519060200190929190505050604051602001808281526020019150506040516020818303038152906040526040518082805190602001908083835b602083106139935780518252602082019150602081019050602083039250613970565b6001836020036101000a038019825116818451168082178552505050505050905001915050602060405180830381855afa1580156139d5573d6000803e3d6000fd5b5050506040515160601b905060405180610140016040528060025481526020018c81526020018b8152602001856bffffffffffffffffffffffff19168152602001846bffffffffffffffffffffffff19168152602001836bffffffffffffffffffffffff19168152602001826bffffffffffffffffffffffff191681526020018681526020013373ffffffffffffffffffffffffffffffffffffffff16815260200160011515815250600660006002548152602001908152602001600020600082015181600001556020820151816001019080519060200190613ab9929190613fce565b506040820151816002015560608201518160030160006101000a81548173ffffffffffffffffffffffffffffffffffffffff021916908360601c021790555060808201518160040160006101000a81548173ffffffffffffffffffffffffffffffffffffffff021916908360601c021790555060a08201518160050160006101000a81548173ffffffffffffffffffffffffffffffffffffffff021916908360601c021790555060c08201518160060160006101000a81548173ffffffffffffffffffffffffffffffffffffffff021916908360601c021790555060e0820151816007019080519060200190613bb0929190613fce565b506101008201518160080160006101000a81548173ffffffffffffffffffffffffffffffffffffffff021916908373ffffffffffffffffffffffffffffffffffffffff1602179055506101208201518160080160146101000a81548160ff0219169083151502179055509050507f1de313b4f90ab491db7612bb3d618c7675032cdd7347d9e271bfdcd9a1dbde636002548c8c878787878c336001604051808b8152602001806020018a8152602001896bffffffffffffffffffffffff19166bffffffffffffffffffffffff19168152602001886bffffffffffffffffffffffff19166bffffffffffffffffffffffff19168152602001876bffffffffffffffffffffffff19166bffffffffffffffffffffffff19168152602001866bffffffffffffffffffffffff19166bffffffffffffffffffffffff19168152602001806020018573ffffffffffffffffffffffffffffffffffffffff1673ffffffffffffffffffffffffffffffffffffffff1681526020018415151515815260200183810383528c818151815260200191508051906020019080838360005b83811015613d67578082015181840152602081019050613d4c565b50505050905090810190601f168015613d945780820380516001836020036101000a031916815260200191505b50838103825286818151815260200191508051906020019080838360005b83811015613dcd578082015181840152602081019050613db2565b50505050905090810190601f168015613dfa5780820380516001836020036101000a031916815260200191505b509c5050505050505050505050505060405180910390a15050505050505050505050565b6008602052806000526040600020600091509050806000015490806001018054600181600116156101000203166002900480601f016020809104026020016040519081016040528092919081815260200182805460018160011615610100020316600290048015613ed05780601f10613ea557610100808354040283529160200191613ed0565b820191906000526020600020905b815481529060010190602001808311613eb357829003601f168201915b5050505050908060020154908060030160009054906101000a900460601b908060040160009054906101000a900473ffffffffffffffffffffffffffffffffffffffff16905085565b60405180610180016040528060008152602001606081526020016000815260200160006bffffffffffffffffffffffff1916815260200160006bffffffffffffffffffffffff1916815260200160006bffffffffffffffffffffffff1916815260200160006bffffffffffffffffffffffff191681526020016060815260200160008152602001600073ffffffffffffffffffffffffffffffffffffffff168152602001600015158152602001600081525090565b828054600181600116156101000203166002900490600052602060002090601f016020900481019282601f1061400f57805160ff191683800117855561403d565b8280016001018555821561403d579182015b8281111561403c578251825591602001919060010190614021565b5b50905061404a91906140d5565b5090565b828054600181600116156101000203166002900490600052602060002090601f016020900481019282601f1061408757805485556140c4565b828001600101855582156140c457600052602060002091601f016020900482015b828111156140c35782548255916001019190600101906140a8565b5b5090506140d191906140d5565b5090565b6140f791905b808211156140f35760008160009055506001016140db565b5090565b9056fea265627a7a72315820632b281f70e0b07d7c23491315bd09a66037d483d4b28c65419a74b90c9c336164736f6c63430005100032",
  "source": "pragma solidity ^0.5.0;\r\n\r\ncontract Marketplace {\r\n    string public name;\r\n    uint public productCount = 0;\r\n    uint public registerCount = 0;\r\n    uint public buyerCount = 0;\r\n    uint public added;\r\n    uint public r=0;\r\n    mapping(uint => Registry) public registers;\r\n    mapping(uint => Product) public products;\r\n    mapping(uint => Buyer) public buyers;\r\n    struct Registry{\r\n        uint id;\r\n        string name1;\r\n        uint phoneno1;\r\n        bytes20 adhaarno1;\r\n        bytes20 surveyno1;\r\n        bytes20 plotno1;\r\n        bytes20 street1;\r\n        string city1;\r\n        address payable owner;\r\n        bool registered;\r\n    }\r\n    \r\n    event PropertyRegistered(\r\n        uint id,\r\n        string name1,\r\n        uint phoneno1,\r\n        bytes20 adhaarno1,\r\n        bytes20 surveyno1,\r\n        bytes20 plotno1,\r\n        bytes20 street1,\r\n        string city1,\r\n        address payable owner,\r\n        bool registered\r\n    );\r\n    \r\n    struct Product {\r\n        uint id;\r\n        //string name;\r\n        string name;\r\n        uint phoneno;\r\n        bytes20 adhaarno;\r\n        bytes20 surveyno;\r\n        bytes20 plotno;\r\n        bytes20 street;\r\n        string city;\r\n        uint price;\r\n        address payable owner;\r\n        bool purchased;\r\n        uint added;\r\n    }\r\n\r\n    event ProductCreated(\r\n        uint id,\r\n        string name,\r\n        uint phoneno,\r\n        bytes20 a,\r\n        bytes20 s,\r\n        bytes20 p,\r\n        bytes20 t,\r\n        string city,\r\n        uint price,\r\n        address payable owner,\r\n        bool purchased,\r\n        uint added\r\n    );\r\n     struct Buyer{\r\n        uint id;\r\n        string name2;\r\n        uint phoneno2;\r\n        bytes20 adhaarno2;\r\n        address payable owner;\r\n        }\r\n    \r\n    event BuyerRegistered(\r\n        uint id,\r\n        string name,\r\n        uint phoneno,\r\n        bytes20 a,\r\n        address payable owner\r\n        );\r\n\r\n    event ProductPurchased(\r\n        uint id,\r\n       // string name,\r\n        string name,\r\n        uint phoneno,\r\n        bytes20 adhaarno,\r\n        bytes20 surveyno,\r\n        bytes20 plotno,\r\n        bytes20 street,\r\n        string city,\r\n        uint price,\r\n        address payable owner,\r\n        bool purchased\r\n    );\r\n\r\n    constructor() public {\r\n        name = \"Chennai Real Estate Market\";\r\n    }\r\n    \r\n    function propertyRegistry(string memory _name1, uint _phoneno1, uint _adhaarno1, uint _surveyno1, uint _plotno1, string memory _street1, string memory _city1) public {\r\n        require(bytes(_name1).length > 0);\r\n        bytes20 a;\r\n        bytes20 s;\r\n        bytes20 p;\r\n        bytes20 t;\r\n        // require(_price > 0);\r\n        registerCount ++;\r\n        a = ripemd160(abi.encodePacked(sha256(abi.encodePacked(_adhaarno1))));\r\n        s = ripemd160(abi.encodePacked(sha256(abi.encodePacked(_surveyno1))));\r\n        p = ripemd160(abi.encodePacked(sha256(abi.encodePacked(_plotno1))));\r\n        t = ripemd160(abi.encodePacked(sha256(abi.encodePacked(_street1))));\r\n        // Create the product\r\n        registers[registerCount] = Registry(registerCount, _name1, _phoneno1, a, s, p, t, _city1, msg.sender, true);\r\n        // Trigger an event\r\n        emit PropertyRegistered(registerCount, _name1, _phoneno1, a, s, p, t, _city1, msg.sender, true);\r\n    }\r\n    function createProduct(string memory _name, uint _phoneno, uint _adhaarno, uint _surveyno, uint _plotno, string memory _street, string memory _city, uint _price) public {\r\n        require(bytes(_name).length > 0);\r\n        added = 0;\r\n        uint l;\r\n        added ++;\r\n        uint m = 0;\r\n        bytes20 a;\r\n        bytes20 s;\r\n        bytes20 p;\r\n        bytes20 t;\r\n        //  _name = sha256(_name);\r\n        //_name=sha256(abi.encodePacked(_name));\r\n        a = ripemd160(abi.encodePacked(sha256(abi.encodePacked(_adhaarno))));\r\n        s = ripemd160(abi.encodePacked(sha256(abi.encodePacked(_surveyno))));\r\n        p = ripemd160(abi.encodePacked(sha256(abi.encodePacked(_plotno))));\r\n        t = ripemd160(abi.encodePacked(sha256(abi.encodePacked(_street))));\r\n         \r\n        for(uint i=1;i<= registerCount;i++){\r\n            if(registers[i].surveyno1 == s && registers[i].phoneno1 == _phoneno && registers[i].adhaarno1 == a && registers[i].plotno1 == p && registers[i].street1 == t ){\r\n                l=i;\r\n            }\r\n        }\r\n        require(registers[l].registered,\"not registered\");\r\n        require(registers[l].owner == msg.sender);\r\n    \r\n        if(r>0 && m==0){\r\n            for(uint i=1;i<=productCount;i++){\r\n                if(products[i].surveyno == s && products[i].owner == msg.sender){\r\n                    require(products[i].added<1);\r\n                }\r\n            }   \r\n        }\r\n        // require(_price > 0);\r\n        productCount ++;\r\n        // Create the product\r\n        products[productCount] = Product(productCount, _name, _phoneno, a, s, p, t, _city, _price, msg.sender, false, added);\r\n        // Trigger an event\r\n        emit ProductCreated(productCount, _name, _phoneno, a, s, p, t, _city, _price, msg.sender, false, added);\r\n        r ++;\r\n    }\r\n    function buyerProduct(string memory _name2, uint _phoneno2, uint _adhaarno2) public {\r\n        require(bytes(_name2).length > 0);\r\n        bytes20 a;\r\n        a = ripemd160(abi.encodePacked(sha256(abi.encodePacked(_adhaarno2))));\r\n        buyerCount ++;\r\n        buyers[buyerCount] = Buyer(buyerCount, _name2, _phoneno2, a, msg.sender);\r\n        emit BuyerRegistered(buyerCount, _name2, _phoneno2, a, msg.sender);\r\n        \r\n    }\r\n    function purchaseProduct(uint _id) public payable {\r\n        // Fetch the product\r\n        Product memory _product = products[_id];\r\n        // Fetch the owner\r\n        address payable _seller = _product.owner;\r\n        // Make sure the product has a valid id\r\n        require(_product.id > 0 && _product.id <= productCount);\r\n        // Require that there is enough Ether in the transaction\r\n        require(msg.value >= _product.price);\r\n        // Require that the product has not been purchased already\r\n        require(!_product.purchased);\r\n        // Require that the buyer is not the seller\r\n        require(_seller != msg.sender);\r\n        // Transfer ownership to the buyer\r\n        _product.owner = msg.sender;\r\n        // Mark as purchased\r\n        _product.purchased = true;\r\n        // Update the product\r\n        products[_id] = _product;\r\n        // Pay the seller by sending them Ether\r\n        address(_seller).transfer(msg.value);\r\n        // Trigger an event\r\n        for(uint i=1;i<=buyerCount;i++){\r\n            if(buyers[i].owner == _product.owner){\r\n                products[_id].name = buyers[i].name2;\r\n                products[_id].phoneno = buyers[i].phoneno2;\r\n                products[_id].adhaarno = buyers[i].adhaarno2;\r\n            }\r\n        }\r\n        emit ProductPurchased(productCount, _product.name, _product.phoneno, ripemd160(abi.encodePacked(sha256(abi.encodePacked(_product.adhaarno)))), ripemd160(abi.encodePacked(sha256(abi.encodePacked(_product.surveyno)))), ripemd160(abi.encodePacked(sha256(abi.encodePacked(_product.plotno)))), ripemd160(abi.encodePacked(sha256(abi.encodePacked(_product.street)))), _product.city, _product.price, msg.sender, true);\r\n        for(uint i=1;i<=registerCount;i++){\r\n            if(registers[i].surveyno1 == products[_id].surveyno){\r\n                registers[i].name1 =  products[_id].name;\r\n                registers[i].phoneno1 = products[_id].phoneno;\r\n                registers[i].adhaarno1 = products[_id].adhaarno;\r\n                registers[i].owner = msg.sender;\r\n                products[i].added = 0;\r\n            }\r\n        }\r\n    }\r\n}\r\n",
  "sourcePath": "C:\\Users\\Sathyajith\\Desktop\\starter_kit-master\\starter_kit-master\\marketplace\\src\\contracts\\Marketplace.sol",
  "compiler": {
    "name": "solc",
    "version": "0.5.16+commit.9c3226ce.Emscripten.clang"
  },
  "schemaVersion": "3.0.23",
  "updatedAt": "2020-05-27T10:53:08.689Z",
  "networkType": "ethereum",
  "devdoc": {
    "methods": {}
  },
  "userdoc": {
    "methods": {}
  }
}